{
  "_format": "hh-sol-artifact-1",
  "contractName": "BasePay",
  "sourceName": "contracts/BasePay.sol",
  "abi": [
    {
      "inputs": [],
      "name": "getAllPaymentRequest",
      "outputs": [
        {
          "components": [
            {
              "internalType": "uint256",
              "name": "paymentRequestId",
              "type": "uint256"
            },
            {
              "internalType": "address payable",
              "name": "fundReceiver",
              "type": "address"
            },
            {
              "internalType": "uint256",
              "name": "txAmount",
              "type": "uint256"
            },
            {
              "internalType": "enum BasePay.PaymentRequestState",
              "name": "paymentRequestState",
              "type": "uint8"
            }
          ],
          "internalType": "struct BasePay.PaymentRequest[]",
          "name": "",
          "type": "tuple[]"
        }
      ],
      "stateMutability": "view",
      "type": "function"
    },
    {
      "inputs": [],
      "name": "getAllUser",
      "outputs": [
        {
          "components": [
            {
              "internalType": "address",
              "name": "userAddress",
              "type": "address"
            },
            {
              "internalType": "uint256",
              "name": "balance",
              "type": "uint256"
            }
          ],
          "internalType": "struct BasePay.User[]",
          "name": "",
          "type": "tuple[]"
        }
      ],
      "stateMutability": "view",
      "type": "function"
    },
    {
      "inputs": [
        {
          "internalType": "uint256",
          "name": "_paymentRequestId",
          "type": "uint256"
        }
      ],
      "name": "getPaymentRequest",
      "outputs": [
        {
          "components": [
            {
              "internalType": "uint256",
              "name": "paymentRequestId",
              "type": "uint256"
            },
            {
              "internalType": "address payable",
              "name": "fundReceiver",
              "type": "address"
            },
            {
              "internalType": "uint256",
              "name": "txAmount",
              "type": "uint256"
            },
            {
              "internalType": "enum BasePay.PaymentRequestState",
              "name": "paymentRequestState",
              "type": "uint8"
            }
          ],
          "internalType": "struct BasePay.PaymentRequest",
          "name": "targetPaymentRequest",
          "type": "tuple"
        }
      ],
      "stateMutability": "view",
      "type": "function"
    },
    {
      "inputs": [
        {
          "internalType": "uint256",
          "name": "_paymentRequestId",
          "type": "uint256"
        },
        {
          "internalType": "enum BasePay.PaymentRequestDecision",
          "name": "_paymentRequestDecision",
          "type": "uint8"
        }
      ],
      "name": "handlePaymentRequest",
      "outputs": [],
      "stateMutability": "payable",
      "type": "function"
    },
    {
      "inputs": [
        {
          "internalType": "uint256",
          "name": "_txAmount",
          "type": "uint256"
        }
      ],
      "name": "initiatePaymentRequest",
      "outputs": [],
      "stateMutability": "nonpayable",
      "type": "function"
    },
    {
      "inputs": [],
      "name": "registerAsUser",
      "outputs": [],
      "stateMutability": "nonpayable",
      "type": "function"
    },
    {
      "inputs": [],
      "name": "topUpAccount",
      "outputs": [],
      "stateMutability": "payable",
      "type": "function"
    }
  ],
  "bytecode": "0x608060405234801561001057600080fd5b50610ef1806100206000396000f3fe6080604052600436106100705760003560e01c806347531df81161004e57806347531df8146100bf578063b09fbe1a146100ea578063b7fe2bf114610127578063d2eddd071461015257610070565b806306f9a17d146100755780632b07114b1461008c578063345c3b9a14610096575b600080fd5b34801561008157600080fd5b5061008a61016e565b005b61009461021a565b005b3480156100a257600080fd5b506100bd60048036038101906100b8919061098f565b6102f5565b005b3480156100cb57600080fd5b506100d4610412565b6040516100e19190610aea565b60405180910390f35b3480156100f657600080fd5b50610111600480360381019061010c919061098f565b6104d1565b60405161011e9190610bf9565b60405180910390f35b34801561013357600080fd5b5061013c610609565b6040516101499190610d18565b60405180910390f35b61016c60048036038101906101679190610d5f565b61070d565b005b600060405180604001604052803373ffffffffffffffffffffffffffffffffffffffff1681526020016000815250908060018154018082558091505060019003906000526020600020906002020160009091909190915060008201518160000160006101000a81548173ffffffffffffffffffffffffffffffffffffffff021916908373ffffffffffffffffffffffffffffffffffffffff160217905550602082015181600101555050565b60005b6000805490508110156102f2573373ffffffffffffffffffffffffffffffffffffffff166000828154811061025557610254610d9f565b5b906000526020600020906002020160000160009054906101000a900473ffffffffffffffffffffffffffffffffffffffff1673ffffffffffffffffffffffffffffffffffffffff16036102df5734600082815481106102b7576102b6610d9f565b5b906000526020600020906002020160010160008282546102d79190610dfd565b925050819055505b80806102ea90610e31565b91505061021d565b50565b6001604051806080016040528060018054905081526020013373ffffffffffffffffffffffffffffffffffffffff168152602001670de0b6b3a76400008461033d9190610e79565b81526020016000600281111561035657610355610b2d565b5b81525090806001815401808255809150506001900390600052602060002090600402016000909190919091506000820151816000015560208201518160010160006101000a81548173ffffffffffffffffffffffffffffffffffffffff021916908373ffffffffffffffffffffffffffffffffffffffff1602179055506040820151816002015560608201518160030160006101000a81548160ff0219169083600281111561040857610407610b2d565b5b0217905550505050565b60606000805480602002602001604051908101604052809291908181526020016000905b828210156104c857838290600052602060002090600202016040518060400160405290816000820160009054906101000a900473ffffffffffffffffffffffffffffffffffffffff1673ffffffffffffffffffffffffffffffffffffffff1673ffffffffffffffffffffffffffffffffffffffff16815260200160018201548152505081526020019060010190610436565b50505050905090565b6104d9610904565b60005b6001805490508110156106025782600182815481106104fe576104fd610d9f565b5b906000526020600020906004020160000154036105ef576001818154811061052957610528610d9f565b5b9060005260206000209060040201604051806080016040529081600082015481526020016001820160009054906101000a900473ffffffffffffffffffffffffffffffffffffffff1673ffffffffffffffffffffffffffffffffffffffff1673ffffffffffffffffffffffffffffffffffffffff168152602001600282015481526020016003820160009054906101000a900460ff1660028111156105d1576105d0610b2d565b5b60028111156105e3576105e2610b2d565b5b81525050915050610604565b80806105fa90610e31565b9150506104dc565b505b919050565b60606001805480602002602001604051908101604052809291908181526020016000905b828210156107045783829060005260206000209060040201604051806080016040529081600082015481526020016001820160009054906101000a900473ffffffffffffffffffffffffffffffffffffffff1673ffffffffffffffffffffffffffffffffffffffff1673ffffffffffffffffffffffffffffffffffffffff168152602001600282015481526020016003820160009054906101000a900460ff1660028111156106df576106de610b2d565b5b60028111156106f1576106f0610b2d565b5b815250508152602001906001019061062d565b50505050905090565b6000610718836104d1565b90506000600181111561072e5761072d610b2d565b5b82600181111561074157610740610b2d565b5b036108ff57806020015173ffffffffffffffffffffffffffffffffffffffff166108fc82604001519081150290604051600060405180830381858888f19350505050158015610794573d6000803e3d6000fd5b5060005b6001805490508110156108335783600182815481106107ba576107b9610d9f565b5b90600052602060002090600402016000015403610820576002600182815481106107e7576107e6610d9f565b5b906000526020600020906004020160030160006101000a81548160ff0219169083600281111561081a57610819610b2d565b5b02179055505b808061082b90610e31565b915050610798565b5060018081111561084757610846610b2d565b5b82600181111561085a57610859610b2d565b5b036108fe5760005b6001805490508110156108fc57836001828154811061088457610883610d9f565b5b906000526020600020906004020160000154036108e95760018082815481106108b0576108af610d9f565b5b906000526020600020906004020160030160006101000a81548160ff021916908360028111156108e3576108e2610b2d565b5b02179055505b80806108f490610e31565b915050610862565b505b5b505050565b604051806080016040528060008152602001600073ffffffffffffffffffffffffffffffffffffffff168152602001600081526020016000600281111561094e5761094d610b2d565b5b81525090565b600080fd5b6000819050919050565b61096c81610959565b811461097757600080fd5b50565b60008135905061098981610963565b92915050565b6000602082840312156109a5576109a4610954565b5b60006109b38482850161097a565b91505092915050565b600081519050919050565b600082825260208201905092915050565b6000819050602082019050919050565b600073ffffffffffffffffffffffffffffffffffffffff82169050919050565b6000610a13826109e8565b9050919050565b610a2381610a08565b82525050565b610a3281610959565b82525050565b604082016000820151610a4e6000850182610a1a565b506020820151610a616020850182610a29565b50505050565b6000610a738383610a38565b60408301905092915050565b6000602082019050919050565b6000610a97826109bc565b610aa181856109c7565b9350610aac836109d8565b8060005b83811015610add578151610ac48882610a67565b9750610acf83610a7f565b925050600181019050610ab0565b5085935050505092915050565b60006020820190508181036000830152610b048184610a8c565b905092915050565b6000610b17826109e8565b9050919050565b610b2781610b0c565b82525050565b7f4e487b7100000000000000000000000000000000000000000000000000000000600052602160045260246000fd5b60038110610b6d57610b6c610b2d565b5b50565b6000819050610b7e82610b5c565b919050565b6000610b8e82610b70565b9050919050565b610b9e81610b83565b82525050565b608082016000820151610bba6000850182610a29565b506020820151610bcd6020850182610b1e565b506040820151610be06040850182610a29565b506060820151610bf36060850182610b95565b50505050565b6000608082019050610c0e6000830184610ba4565b92915050565b600081519050919050565b600082825260208201905092915050565b6000819050602082019050919050565b608082016000820151610c566000850182610a29565b506020820151610c696020850182610b1e565b506040820151610c7c6040850182610a29565b506060820151610c8f6060850182610b95565b50505050565b6000610ca18383610c40565b60808301905092915050565b6000602082019050919050565b6000610cc582610c14565b610ccf8185610c1f565b9350610cda83610c30565b8060005b83811015610d0b578151610cf28882610c95565b9750610cfd83610cad565b925050600181019050610cde565b5085935050505092915050565b60006020820190508181036000830152610d328184610cba565b905092915050565b60028110610d4757600080fd5b50565b600081359050610d5981610d3a565b92915050565b60008060408385031215610d7657610d75610954565b5b6000610d848582860161097a565b9250506020610d9585828601610d4a565b9150509250929050565b7f4e487b7100000000000000000000000000000000000000000000000000000000600052603260045260246000fd5b7f4e487b7100000000000000000000000000000000000000000000000000000000600052601160045260246000fd5b6000610e0882610959565b9150610e1383610959565b9250828201905080821115610e2b57610e2a610dce565b5b92915050565b6000610e3c82610959565b91507fffffffffffffffffffffffffffffffffffffffffffffffffffffffffffffffff8203610e6e57610e6d610dce565b5b600182019050919050565b6000610e8482610959565b9150610e8f83610959565b9250828202610e9d81610959565b91508282048414831517610eb457610eb3610dce565b5b509291505056fea26469706673582212208d1a3d398a5dd3f2133896bfae91fd5f07e04c926c859bedfdd87b23cc25509164736f6c63430008110033",
  "linkReferences": {},
  "deployedLinkReferences": {}
}