{
  "_format": "hh-sol-artifact-1",
  "contractName": "BasePay",
  "sourceName": "contracts/BasePay.sol",
  "abi": [
    {
      "inputs": [
        {
          "internalType": "address payable",
          "name": "_paymentRecipient",
          "type": "address"
        }
      ],
      "name": "initiatePayment",
      "outputs": [],
      "stateMutability": "payable",
      "type": "function"
    }
  ],
  "bytecode": "0x608060405234801561001057600080fd5b50610310806100206000396000f3fe60806040526004361061001e5760003560e01c80637cfd274314610023575b600080fd5b61003d6004803603810190610038919061019e565b61003f565b005b600073ffffffffffffffffffffffffffffffffffffffff168173ffffffffffffffffffffffffffffffffffffffff16036100ae576040517f08c379a00000000000000000000000000000000000000000000000000000000081526004016100a590610228565b60405180910390fd5b600034116100f1576040517f08c379a00000000000000000000000000000000000000000000000000000000081526004016100e8906102ba565b60405180910390fd5b8073ffffffffffffffffffffffffffffffffffffffff166108fc349081150290604051600060405180830381858888f19350505050158015610137573d6000803e3d6000fd5b5050565b600080fd5b600073ffffffffffffffffffffffffffffffffffffffff82169050919050565b600061016b82610140565b9050919050565b61017b81610160565b811461018657600080fd5b50565b60008135905061019881610172565b92915050565b6000602082840312156101b4576101b361013b565b5b60006101c284828501610189565b91505092915050565b600082825260208201905092915050565b7f496e76616c696420616464726573730000000000000000000000000000000000600082015250565b6000610212600f836101cb565b915061021d826101dc565b602082019050919050565b6000602082019050818103600083015261024181610205565b9050919050565b7f5061796d656e7420616d6f756e74206d7573742062652067726561746572207460008201527f68616e2030000000000000000000000000000000000000000000000000000000602082015250565b60006102a46025836101cb565b91506102af82610248565b604082019050919050565b600060208201905081810360008301526102d381610297565b905091905056fea2646970667358221220235e3368150d62984d57d70527f02bfe2f33e6c944346971e762ca13b44e4b8b64736f6c63430008110033",
  "linkReferences": {},
  "deployedLinkReferences": {}
}